:4000000000800020110000009D0300009D03000008B5044B1A6803F53F5302331A6000F0C5F900BFFA46004010B5054C237833B9044B13B10448AFF300800123237010BD79
:400040004881FF1F00000000880E0000084B10B51BB108490848AFF300800848036803B910BD074B002BFBD0BDE81040184700BF000000004C81FF1F880E0000C880FF1FD6
:400080000000000008B500F045FA054B187010F0020F02D0187900F033FA00F0B7FC08BD6481FF1F08B562B600F018FA00F038FA00F018FC00F02AFC0B4800F01BFD00F022
:4000C000FFF900F0E9FC00F071FC084B5860002801DA00225A60054B5B68FF2BF3DDFF22024B5A60EFE700BF850000006481FF1FFEE700BFF0B40022174611E050F8276013
:40010000F3B226F0FF0608E001EB420511F812406D78A5550132013BDBB2002BF4D10137172FEBD9F0BC70470A4B1B78DBB203F00701094A11701B09013213701022074B77
:400140001A70012203F603131A704422A3F28A231A707047CF0100496E580040FD51004008B50A46002100F086FE08BD08B500F077FE08BD38B500242E4B1C805022023388
:400180001A70192502331D80182202331A70042229492A48FFF7EAFF0222294B1A7008224FF040231A70032103F500731970254B1B78DBB224490B70244B1A8041F251220C
:4001C000023B1A800CE0224B1B7803F0010343EA440404F003044FF4F07000F005FE013D0DB1032CEFD115B90320FFF781FF194B4FF480721A8007221A70002216490A700C
:400200004820023108701A700222033B1A7004220A331A70114A137843F003031370013A137843F001031370013A137843F08003137038BD80400040300400480041004035
:400240000043004008010049A146004022420040254200400440004006400040A2430040012807D8044B53F820201844017A13780B431370704700BF8C0E0000012808D8DA
:40028000044B53F820201844017A137823EA0103137070478C0E000038B572B6314A137843F00403137000240BE02F4863001A19510001440A46098AD068FFF751FF0134FD
:4002C000E4B2092CF1D900240BE02749A3001819420088188022C16C806CFFF747FF0134E4B2002CF1D021494FF09040FFF702FF0A251F4B1D701F4A137843F00203137040
:400300001032137843F0020313701B4C237843F040032370A2F58632513A137843F010031370082215491648FFF720FF2A4615491548FFF71BFF154A137843F0080313701B
:40034000134D61232B70FFF715FF81232B700122104B1A70FFF7E8FE0E2221460E48FFF705FF38BDE84600408C0E0000600000488358004003500140A04300401C0400480B
:40038000F25100402404004810510040224300400048004004000840B043004008B500F033FD03680C2B00D1FEE7FEE708B5104E104D16E029686B68AC68002204E051F8AE
:4003C000040B43F8040B0432A242F8D1E868002203E0002143F8041B04328242F9D11035013E002EE6D100F015FDFFF75BFEFEE701000000040F000008B5104A104B1A608E
:40040000104A136843F40073136000230AE0032B03D80D4A52F8231000E00C490C4A42F8231001332F2BF2D90A4B1A780A4B1A70074A0A4B1A60FFF72FFF08BD0004FA05BD
:400440000CED00E014ED00E0000000009D0300000080FF1FBC760040C080FF1F08ED00E07222074B1A700023064A13700621613A1170472110321170B03A1370704700BF28
:400480008A6500408965004010B500F0B5FC04460A4A137843F020031370013A137843F010031370A2F20112137843F01003137000F02EFB204600F0A3FC10BD9A650040D3
:4004C00008B5054B1B7823B9FFF7CAFF0122024B1A70FFF7D9FF08BD6C81FF1F08B500F08BFC064B1A7842F001021A701A7802F0FE021A7000F084FC08BD00BF9A65004012
:40050000024B1B780BB1024B187070476C81FF1F48640040014B1878704700BF6864004008B500F069FC064B1A7842F001021A701A7802F0FE021A7000F062FC08BD00BFAA
:400540009864004010B59DF80840012C51D1013809282ED8DFE800F0052D2D052D2D0F192D230F2B03D92548007840B222E02448007840B21EE00F2B03D92248007840B244
:4005800018E02148007840B214E00F2B03D91F48007840B20EE01E48007840B20AE00F2B03D91C48007840B204E01B48007840B200E0002001EB401101FB02F1C90B8AB21C
:4005C0000D2B0BD8C3F10E0289B211418AB2611E124800EB810101338B7005E0631E0F4901EB83030F219970013C0C4B23F8242010BD002000F0BEFB10BD00BF18010049FE
:400600001C010049190100491D0100491A0100491E0100491B0100491F0100497081FF1FF8B5074600F0E8FB06460D4D2B7843F003032B700B4C237843F0030323700A4BE4
:400640001F70032000F098FB2B7803F0FC032B70237803F0FC032370304600F0D1FBF8BDF8460040F9460040925800400022314B1A7101285DD170B538222F4B1A700422BE
:4006800002331A70062201331A70002401331C7001331C700F2201331A7002331C7001331C7001331C7001250A331D70142203F527631A70052601331E70162201331A70AC
:4006C00001331C70442203331A70482201331A7001331D7002331D70112201331A70192201331A70972201331A705220FFF798FF5822124B1A7001331C7005331E700222FE
:4007000001331A7001331C7001331C70204600F01DFA33220A4B1A602946304600F03AFA2946952000F0BAFA06491D2000F02EFB70BD70477081FF1F004E004094580040C7
:400740008081FF1FD5090000F0B583B0284D01272F70284E00247471102000F009FA102000F08AFA07211D2000F024FB0422224B1A7001331C7007331C70204A137843F0E3
:40078000180313701E4B1C7003F2F5231C7001331C700A22A3F209331A7001331C7002331C70122205331A70132201331A7004331C701422A3F68C231A70009708234FF48C
:4007C000004248F66B510220FFF7BCFE2B78013B06EB83039A780B4B1A702B78013B36F82320094B1A802878FFF740FF03B0F0BDCC80FF1F7081FF1F96580040075B0040E7
:40080000935800400E4E00400C4E004070B500F0F3FA06462A4B1B782A4B1A7842F001021A701A7842F010021A7010331A7842F001021A701A7842F010021A70224D2B78D5
:4008400043F002032B70214C237843F0020323701F4A137843F003031370032000F08CFA2B7803F0FD032B70237803F0FD032370184A137843F0060313707A22164B1A7004
:40088000164A137843F0010313701032137843F0010313700F3A137843F0010313701032137843F0010313704FF000530C4A1360A2F5C0721360304600F0A2FA70BD00BF72
:4008C000CC80FF1FAA430040F8460040F9460040915800407758004082580040A143004080E200E008B5084B9B794BB9064BDB7913F0FF0F01D1FFF727FF0122024B9A7165
:40090000FFF784FF08BD00BF7081FF1F024A137843F0010313707047004E0040024A137803F0FE0313707047004E0040094B1B7913F0FF0F03D0074B5B79DBB203E0064B8F
:400940001B7803F00103012B01D00028EED01846704700BF7081FF1F014E00400E4B1B7803F00303012B03D80C4B188880B209E00A4A12780A49087842EA0020032B01D19D
:40098000084B1B78084B1B7913F0FF0F02D00022054B5A7100B27047144E0040104E0040114E0040124E00407081FF1F10B5084A137843F004031370FFF7A8FF0020FFF741
:4009C000B5FFFFF7CBFF0446FFF7A8FF204610BD014E0040704700BF084A137843F0010313701032137843F00103137002F64D32137843F001031370704700BFA3430040EE
:400A0000014B1870704700BF034F0040014B1878704700BF034F0040014B1880704700BF044F0040014B1880704700BF064F004008B5164A137803F0010313700232137839
:400A400003F0FC031370124B1A7802F0CF021A701A7842F030021A701A7802F0F0021A701A7842F00F021A700A4A137843F00103137045F6BF50FFF7CFFF45F6BF50FFF7FF
:400A8000D1FF0820FFF7BCFF08BD00BF004F00400B4F0040014F004008B5054B1B7823B9FFF7C6FF0122024B1A70FFF795FF08BD7C81FF1F024B1B68C3F88400704700BF30
:400AC00008ED00E04001C0B2014B1870704700BF11E400E04FF40032014B1A60704700BF00E100E04FF40032014B1A60704700BF80E100E010B50446FFF7F4FF2046FFF797
:400B0000D9FF0720FFF7DEFFFFF7E4FF10BD00BF054A137843F0020313701032137843F002031370704700BFA243004010B5002404E02046FFF7A2FB0134E4B2012CF8D937
:400B4000FF22014B1A7010BDCD80FF1F10B50446FFF7ECFF2046FFF783FB014B1C7010BDCD80FF1F014B188880B2704780400040034B1A7800F0F80010431870704700BF7E
:400B800082400040024B187800F00700704700BF8240004070B505460E46FFF7F3FF0446FFF7E0FFA84256D02B4B1B7803F0010294B900B185B938B9284B1D80284A1378D3
:400BC00003F0BF03137070BD254A137843F040031370224B1D8070BD22B3002321490B7001240F310C7004310B700C390B7803F07F030B701A4B1B7813F0080F00D08DB918
:400C0000194B18800721013B1970164B1B7813F0010FFAD110490B7803F0FE030B700021104B19700C4B1B7813F0010F0DD00E4B1D800EB1032200E001220A4B1A70094BBF
:400C40001B7813F0010FFAD170BD044B1D8002490B7813430B7070BDA243004080400040824000400140004002400040014B188880B2704700410040034B1A7800F0F800D6
:400C800010431870704700BF02410040024B187800F00700704700BF0241004070B505460E46FFF7F3FF0446FFF7E0FFA84256D02B4B1B7803F0010294B900B185B938B98C
:400CC000284B1D80284A137803F0BF03137070BD254A137843F040031370224B1D8070BD22B3002321490B70012413310C7004390B7008390B7803F07F030B701A4B1B7832
:400D000013F0080F00D08DB9194B18800721013B1970164B1B7813F0010FFAD110490B7803F0FE030B700021104B19700C4B1B7813F0010F0DD00E4B1D800EB1032200E0E4
:400D400001220A4B1A70094B1B7813F0010FFAD170BD044B1D8002490B7813430B7070BDA14300400041004002410040014000400240004001BE704708B5034B1B7A00FB8B
:400D800003F000F031F808BDD080FF1F70B504460E46074B1D681F2802D90020FFF7EAFF04F01F04103455F8240045F8246070BD08ED00E038B504460D46072902D90020F5
:400DC000FFF7D8FF1F2C02D90020FFF7D3FF04F01F0000F1604000F564406D01EDB2057038BD00BF000000000230800803D000BF01380046FCD17047EFF3108072B6704705
:400E000080F31088704700BF014B1868704700BF4081FF1F0E4B70B51E460E4C0025E41AA410A54204D056F8253098470135F8E700F056F8084B094C1E46E41AA41000258A
:400E4000A54204D056F8253098470135F8E770BDEC0E0000EC0E0000EC0E0000F40E000010B5431E0A44914204D011F8014B03F8014FF8E710BD03460244934202D003F86B
:400E8000011BFAE77047000000000000035B00402443004040000000004F00400C00005100401000205100405000C05100401000000001400010001401400006801A0140D4
:400EC000800100400140000A004C01400002005001402000001A01409C03004880004300F8B500BFF8BC08BC9E4670474D000000F9030000F8B500BFF8BC08BC9E4670475A
:400F000029000000180F0000C880FF1F8000000040000000000000000000000001FF00000000E02EC05D00001800000000366E010000000000000000000000000000000053
:400F400000000000000000000000000000000000DE0E0000000000000000000000000000000000000000000000000000000000000000000000000000000000000000000085
:400F800000000000000000000000000000000000E080FF1F0000000000000000000000000000000000000000000000000000000000000000000000000000000000000000B3
:400FC00000000000000000000000000000000000000000000000000000000000000000000000000000000000000000000000000000000000000000000000000000000000F1
:4010000000000000000000000000000000000000000000000000000000000000000000000000000000000000000000000000000000000000000000000000000000000000B0
:401040000000000000000000000000000000000000000000000000000000000000000000000000000000000000000000000000000000000000000000000000000000000070
:401080000000000000000000000000000000000000000000000000000000000000000000000000000000000000000000000000000000000000000000000000000000000030
:020000040003F7
:0200000480007A
:40000000024F0040025200400164004002650040010501405508014034090140040A0140030B0140011501405418014047190140091A0140431B0140044201400244014098
:400040000145014003460140034701400248014001490140064C0140044D01400450014001800A4B09800C40880F893C8A72E20101030280030404C3063008B009030A478F
:400080000B0C0F051001120E144015031603171418711A881B081C021E011F18202422412450291A2B042E80307F331F36803B083E404024410346B047CE483849FF4AFFFB
:4000C0004BFF4EF04F44500C5401580459045A045B045C115D115F0166C06A406B028203840789018A048C048E019004920294089501963098209A189E20A102A218A408AE
:40010000A630A807AB01AC04B007B103B438B902BA22D804D904DC11DF0100A2010804100640072809080A860E661006124013081502162219201A841C401E401F4021013D
:400140002201238025082608272029202B402D2031083638378038103C103E023F804640472849804B80562A5C205D805E085F02B440C07FC2FFC4BFCA25CC72CEB4D0E026
:40018000D6F0B90ABF05D904DF01248027208320EC10020204080502061608010C080F011410160A181C19031A021C10221C2903310332063401361839023A883E103F018B
:4001C0004001450449FF4A074BFF4C404D204EF04F055008580459045A045C015D015F01604061A8624063208020841F88208C018D088E0690209304941F950297019A400B
:400200009D029E209F01A014A103A209A40AA611A903AA40AE20B018B102B220B304B440B501B607B708B920BE10BF41D41CD804D904DB04DC11DD10DF0101A40380044076
:400240000648072009A00AA00E261080120813481502180419801A101B021C101E2A1F0820202120220123012740280429202B802F08300A31043240372038403E043F8098
:4002800047404E20564057405A0960046280830188808B128D8490409102928494109A089B209C049D089E40A453A625A740A820AA0AAB02C0FFC2EFC41FCA25CC2BCE586B
:4002C000D010D603D80CE00187018B01B701BA80BF40D804D904DC01DF01000601800204082009800A800B1010AA18E419251A011F80200221212204268028202961312021
:4003000032403304382039463E103F04404042104380480149604B4452085A0269446A206B0470A888208B808C408E049292931095049629974099809D24A002A180A401D9
:40034000A688A780B04AB308B508B780C00FC20FC40FCA0FCC0ECE6FD00BD20CD601EC1063018301D640E2807C01DE01940145089401D001A508B401EC082510C820B51054
:40038000092062028202A508C202D802B120B508EC08EE0100020C0210021C0200186124614006002107003800400800060061000040100067110008071A6025040D001244
:4003C000023F0000063D00020000103F181C462007032040000028220000010065010300040C000E11FFFFFF62A0F0410C00000000000213040404041111000100000000BD
:400400000000400200103010001010120000000000000000000000000000000000000000000010008000408B8B0080000000000095001801000000000000000000000000E4
:40044000000000000000000000000000000000000000000000000000000000000000000000000000000000000000000000000000000000000000000000000000000000007C
:40048000000000000000000000000000000000000000000000000000000000000000000000000000000000000000000000000000000000000000000000000000000000003C
:4004C00000000000000000000000000000000000000000000000000000000000000000000000000000000000000000000000000000000000000000000000000000000000FC
:4005000000000000000000000000000000000000000000000000000000000000000000000000000000000000000000000000000000000000000000000000000000000000BB
:0200000490006A
:0400000000004005B7
:0200000490105A
:04000000BC90ACAF55
:0200000490303A
:020000000DC62B
:0200000490402A
:4000000000000000000000000000000000000000000000000000000000000000000000000000000000000000000000000000000000000000000000000000000000000000C0
:400040000000000000000000000000000000000000000000000000000000000000000000000000000000000000000000000000000000000000000000000000000000000080
:400080000000000000000000000000000000000000000000000000000000000000000000000000000000000000000000000000000000000000000000000000000000000040
:4000C0000000000000000000000000000000000000000000000000000000000000000000000000000000000000000000000000000000000000000000000000000000000000
:0200000490501A
:0C00000000012E16106900012E1C1E2F9E
:00000001FF